:020000040800F2
:1000000000500020B9080008090900080909000883
:100010000909000809090008090900080000000092
:1000200000000000000000000000000009090008B6
:100030000909000800000000090900080909000872
:100040000909000809090008090900080909000848
:100050000909000809090008710800087F0800085C
:100060008D080008090900080909000809090008A5
:100070000909000809090008090900080909000818
:100080000909000809090008090900080909000808
:1000900009090008090900080909000809090008F8
:1000A00009090008090900080909000809090008E8
:1000B00009090008090900080909000809090008D8
:1000C00009090008090900080909000809090008C8
:1000D00009090008090900080909000809090008B8
:1000E00009090008090900080000000009090008C2
:1000F0000909000809090008090900080909000898
:100100000909000809090008090900080909000887
:100110000909000809090008090900080909000877
:100120000909000809090008090900080909000867
:1001300010B5054C237833B9044B13B10448AFF321
:1001400000800123237010BD00000020000000008B
:100150005409000808B5034B1BB103490348AFF32A
:10016000008008BD000000000400002054090008C1
:1001700080B400AF034B38225A6100BFBD4680BC3B
:10018000704700BF000C014080B400AF054B1B6AF4
:10019000044A23F4887323F00103136200BFBD46B1
:1001A00080BC7047002C014080B584B000AF03468E
:1001B000FB7100F099F80346FB81FFF7E5FFFFF7BD
:1001C000D7FF384B00225A63364B00229A63354BD7
:1001D0000022DA63FB89312B60D9FB79013B052BC7
:1001E0005DD801A252F823F04F02000883020008F4
:1001F000690200081B02000835020008010200081D
:10020000284AFB895363274B1B6A264A43F00103A4
:100210001362254B10221A6141E0224AFB89536385
:10022000204B1B6A1F4A43F0010313621E4B20221E
:100230001A6134E01B4AFB8993631A4B1B6A194A03
:1002400043F010031362184B20221A6127E0154A6D
:10025000FB899363134B1B6A124A43F0100313622A
:10026000114B08221A611AE00E4AFB89D3630D4B29
:100270001B6A0C4A43F4807313620B4B08221A6109
:100280000DE0084AFB89D363064B1B6A054A43F419
:1002900080731362044B10221A6100E000BF103714
:1002A000BD4680BD002C0140000C014080B400AF71
:1002B0000C4B9B680B4A43F001039360094B9B680E
:1002C000084A43F48003936000BF064B1B6803F0A9
:1002D0000203002BF9D0034BDB6C9BB21846BD46E2
:1002E00080BC70470024014080B582B000AFFFF7AA
:1002F000DDFF0346FB80FB88B3F5805F02D340F649
:10030000FF73FB80FB88084AD26A03FB02F2074BAB
:10031000A3FB0213D21A52081344DB0ABB80BB882A
:1003200018460837BD4680BD002C01400101100071
:1003300080B400AF044B9B68DBB203F00703DBB271
:100340001846BD4680BC70470008014080B483B0A9
:1003500000AF0346FB7197F90730002B0BDBFB79ED
:1003600003F01F02064997F907305B09012000FAE4
:1003700002F241F8232000BF0C37BD4680BC704715
:1003800000E100E080B400AF304B1B682F4A43F41B
:100390008033136000BF2D4B1B6803F40033002B28
:1003A000F9D02B4B1B682A4A43F010031360284BEB
:1003B0001B68274A23F007031360254B1B68244A58
:1003C00043F004031360214B5B68204A43F48033FD
:1003D00053601E4B5B681D4A23F4003353601B4B74
:1003E0005B681A4A23F470135360184B5B68174A12
:1003F00043F4E0135360154B144A5B685360134B8E
:100400005B68124A43F480635360104B0F4A5B6889
:1004100053600E4B1B680D4A43F08073136000BF9E
:100420000A4B1B6803F00073002BF9D0074B5B6885
:10043000064A23F003035360044B5B68034A43F00E
:100440000203536000BFBD4680BC704700100240ED
:100450000020024080B500AF4E4B9B694D4A43F0EF
:10046000040393614B4B9B694A4A43F00103936138
:10047000494B1B68484A23F00F031360464B1B6827
:10048000454A43F008031360434BDB68424A43F09C
:100490000103D360404B1B683F4A23F0F003136015
:1004A0003D4B1B683C4A43F0800313603A4BDB68CA
:1004B000394A43F00203D360374B1B68364A23F4B2
:1004C00070631360344B1B68334A43F4006313605A
:1004D000314BDB68304A43F00403D3602F4B9B68F9
:1004E0002E4A23F47F6323F00F0393602B4B2B4A98
:1004F0009B689360294B294A9B689360274B274A46
:100500009B689360264B1B68254A43F001031360E8
:10051000234B1B68224A43F002031360204B1B68E5
:100520001F4A43F0040313601D4B9B681C4A43F0B1
:10053000010393601A4B9B68194A43F002039360CE
:10054000174B9B68164A43F004039360144BDB6817
:10055000134A43F00103D360114BDB68104A43F0A8
:100560000203D3600E4BDB680D4A43F00403D360F3
:100570000620FFF7EBFE0720FFF7E8FE0820FFF755
:10058000E5FE074B5B69064A43F00703536100BF72
:1005900080BD00BF00100240000801400000014083
:1005A0000004014080B400AF194B9B69184A43F026
:1005B00008039361174B1B68164A43F440531360BA
:1005C000144B1B68134A43F440331360114B1B68F0
:1005D000104A43F4401313600E4B1B680D4A23F47A
:1005E000404313600B4B1B680A4A23F440231360FB
:1005F000084B1B68074A23F440031360054B5B69F3
:10060000044A43F03803536100BFBD4680BC7047C5
:1006100000100240000C014080B400AF514B9B69B8
:10062000504A43F0040393614E4B9B694D4A43F09B
:10063000010393614B4B9B694A4A43F40063936106
:10064000494B5B68484A23F00F035360464B5B6895
:10065000454A43F003035360434B5B68424A43F00F
:1006600008035360404B5B683F4A23F0F00353603C
:100670003D4B5B683C4A43F0300353603A4B5B6848
:10068000394A43F080035360374B5B68364A23F4A2
:1006900070635360344B5B68334A43F44073536078
:1006A000314B5B68304A43F4006353602F4B0022A8
:1006B0009A622E4B40F60F62DA622C4B9B692B4AF2
:1006C00023F4E04323F070039361284B9B69274A8E
:1006D00043F060039361254B9B69244A43F4C04374
:1006E0009361224BDB69214A43F06003D3611F4BC6
:1006F0009B691E4A43F0080393611C4B9B691B4A8C
:1007000043F400639361194BDB69184A43F0080313
:10071000D361164B1B68154A43F080031360134BDB
:100720001B6A124A43F001031362104B1B6A0F4A03
:1007300043F0100313620D4B1B6A0C4A43F48073A1
:1007400013620A4B5B6C094A43F400435364074B42
:100750001B68064A43F00103136000BFBD4680BC1E
:10076000704700BF0010024000080140002C01400B
:1007700080B483B000AF2A4B9B69294A43F004033D
:100780009361274B9B69264A43F400739361254B81
:100790001B68244A23F470431360214B5B68204A92
:1007A00023F4404353601E4B5B681D4A43F40043EF
:1007B00053601D4B1B691C4A23F4606313611A4B81
:1007C0001B69194A43F4C0631361174B0022DA62B4
:1007D000154B03225A63144B01229A600023FB80BD
:1007E00006E0FB881BB29BB201339BB21BB2FB80BD
:1007F000FB881BB2B3F57A7FF3DB0B4B9B680A4A8D
:1008000043F00403936000BF074B9B6803F00403AD
:10081000002BF9D100BF00BF0C37BD4680BC70472C
:1008200000100240000801400024014080B582B061
:1008300000AF78600C4B5A697B681340002B0ED0D8
:10084000094A7B685361FFF773FD03461A46074B5D
:100850001A70064B1B78DBB21846FFF7A5FC00BFE9
:100860000837BD4680BD00BF000401401C000020C9
:1008700080B500AF0120FFF7D9FF00BF80BD80B574
:1008800000AF0220FFF7D2FF00BF80BD80B500AFF0
:100890000420FFF7CBFF00BF80BD80B500AFFFF79E
:1008A00071FDFFF77FFEFFF7D5FDFFF7B5FEFFF700
:1008B0005FFF00BFFDE700000D488546AFF30080F5
:1008C0000C480D490D4A002302E0D458C4500433AB
:1008D000C4188C42F9D30A4A0A4C002301E0136081
:1008E0000432A242FBD300F011F8FFF7D6FFFEE777
:1008F00000500020000000200000002074090008C3
:100900000000002020000020FEE7000070B5002657
:100910000C4D0D4C641BA410A64209D100F01AF82E
:1009200000260A4D0A4C641BA410A64205D170BDD6
:1009300055F8043B98470136EEE755F8043B9847D5
:100940000136F2E76C0900086C0900086C09000820
:1009500070090008F8B500BFF8BC08BC9E46704797
:0C096000F8B500BFF8BC08BC9E4670470C
:04096C005501000829
:040970003101000849
:04000005080008B92E
:00000001FF
