:020000040800F2
:100000000050002055150008A5150008A51500088A
:10001000A5150008A5150008A5150008000000009A
:10002000000000000000000000000000A51500080E
:10003000A515000800000000A5150008A51500087A
:10004000A5150008A5150008A5150008A5150008A8
:10005000A5150008A5150008051000085D1000088A
:100060006B100008A5150008A5150008A5150008C7
:10007000A5150008A5150008A5150008A515000878
:10008000A5150008A5150008A5150008A515000868
:10009000A5150008A5150008A5150008A515000858
:1000A000A5150008A5150008A5150008A515000848
:1000B000A515000879100008A5150008A515000869
:1000C000A5150008A5150008A5150008A515000828
:1000D000A5150008A5150008A5150008A515000818
:1000E000A5150008A515000800000000A5150008CA
:1000F000A5150008A5150008A5150008A5150008F8
:10010000A5150008A5150008A5150008A5150008E7
:10011000A5150008A5150008A5150008A5150008D7
:10012000A5150008A5150008A5150008A5150008C7
:1001300010B5054C237833B9044B13B10448AFF321
:1001400000800123237010BD5C000020000000002F
:10015000F81E000808B5034B1BB103490348AFF371
:10016000008008BD0000000060000020F81E0008AC
:1001700080F0004002E000BF81F0004142001FBF5C
:100180005FEA410392EA030F7FEA226C7FEA236C65
:100190006AD04FEA1262D2EB1363C1BFD21841405A
:1001A00048404140B8BF5B42192B88BF704710F0F0
:1001B000004F40F4000020F07F4018BF404211F093
:1001C000004F41F4000121F07F4118BF494292EAFB
:1001D000030F3FD0A2F1010241FA03FC10EB0C0027
:1001E000C3F1200301FA03F100F0004302D54942B4
:1001F00060EB4000B0F5000F13D3B0F1807F06D361
:1002000040084FEA310102F10102FE2A51D2B1F158
:10021000004F40EBC25008BF20F0010040EA03004D
:100220007047490040EB0000013A28BFB0F5000FCD
:10023000EDD2B0FA80FCACF1080CB2EB0C0200FA83
:100240000CF0AABF00EBC25052421843BCBFD040D2
:100250001843704792F0000F81F4000106BF80F44C
:1002600000000132013BB5E74FEA41037FEA226C0F
:1002700018BF7FEA236C21D092EA030F04D092F0DA
:10028000000F08BF0846704790EA010F1CBF00200E
:10029000704712F07F4F04D1400028BF40F000406B
:1002A000704712F100723CBF00F50000704700F08B
:1002B000004343F0FE4040F4000070477FEA2262B2
:1002C00016BF08467FEA23630146420206BF5FEA83
:1002D000412390EA010F40F4800070474FF0000383
:1002E00004E000BF10F0004348BF40425FEA000C4A
:1002F00008BF704743F0964301464FF000001CE0F2
:1003000050EA010208BF70474FF000030AE000BF47
:1003100050EA010208BF704711F0004302D5404285
:1003200061EB41015FEA010C02BF844601460020F7
:1003300043F0B64308BFA3F18053A3F50003BCFA12
:100340008CF2083AA3EBC25310DB01FA02FC6344BF
:1003500000FA02FCC2F12002BCF1004F20FA02F2C6
:1003600043EB020008BF20F00100704702F12002B9
:1003700001FA02FCC2F1200250EA4C0021FA02F21A
:1003800043EB020008BF20EADC7070474FF0FF0C1F
:100390001CEAD0521EBF1CEAD15392EA0C0F93EA1A
:1003A0000C0F6FD01A4480EA010C400218BF5FEABC
:1003B00041211ED04FF0006343EA501043EA51112F
:1003C000A0FB01310CF00040B1F5000F3EBF490029
:1003D00041EAD3715B0040EA010062F17F02FD2A2D
:1003E0001DD8B3F1004F40EBC25008BF20F0010010
:1003F000704790F0000F0CF0004C08BF49024CEA27
:10040000502040EA51207F3AC2BFD2F1FF0340EAB8
:10041000C250704740F400004FF00003013A5DDC29
:1004200012F1190FDCBF00F000407047C2F100026A
:10043000410021FA02F1C2F1200200FA02FC5FEA57
:10044000310040F1000053EA4C0308BF20EADC70A1
:10045000704792F0000F00F0004C02BF400010F413
:10046000000F013AF9D040EA0C0093F0000F01F0C0
:10047000004C02BF490011F4000F013BF9D041EAE2
:100480000C018FE70CEAD15392EA0C0F18BF93EAE4
:100490000C0F0AD030F0004C18BF31F0004CD8D10E
:1004A00080EA010000F00040704790F0000F17BF95
:1004B00090F0004F084691F0000F91F0004F14D0DB
:1004C00092EA0C0F01D142020FD193EA0C0F03D133
:1004D0004B0218BF084608D180EA010000F0004036
:1004E00040F0FE4040F40000704740F0FE4040F411
:1004F000400070474FF0FF0C1CEAD0521EBF1CEAB0
:10050000D15392EA0C0F93EA0C0F69D0A2EB0302CD
:1005100080EA010C49024FEA402037D04FF0805367
:1005200043EA111143EA10130CF000408B4238BF2C
:100530005B0042F17D024FF4000C8B4224BF5B1A3A
:1005400040EA0C00B3EB510F24BFA3EB510340EA88
:100550005C00B3EB910F24BFA3EB910340EA9C0036
:10056000B3EBD10F24BFA3EBD10340EADC001B01A6
:1005700018BF5FEA1C1CE0D1FD2A3FF650AF8B424A
:1005800040EBC25008BF20F0010070470CF0004C57
:100590004CEA50207F32C2BFD2F1FF0340EAC25082
:1005A000704740F400004FF00003013A37E792F043
:1005B000000F00F0004C02BF400010F4000F013AA1
:1005C000F9D040EA0C0093F0000F01F0004C02BF9C
:1005D000490011F4000F013BF9D041EA0C0195E705
:1005E0000CEAD15392EA0C0F08D142027FF47DAF9E
:1005F00093EA0C0F7FF470AF084676E793EA0C0F8E
:1006000004D14B023FF44CAF08466EE730F0004C8B
:1006100018BF31F0004CCAD130F000427FF45CAF1B
:1006200031F000437FF43CAF5FE700BF4FF0FF3C89
:1006300006E000BF4FF0010C02E000BF4FF0010CDC
:100640004DF804CD4FEA40024FEA41037FEA226CA5
:1006500018BF7FEA236C11D001B052EA530C18BFC7
:1006600090EA010F58BFB2EB030088BFC81738BF2C
:100670006FEAE17018BF40F0010070477FEA226C1A
:1006800002D15FEA402C05D17FEA236CE4D15FEA16
:10069000412CE1D05DF8040B704700BF844608464A
:1006A0006146FFE70FB5FFF7C9FF002848BF10F10B
:1006B000000F0FBD4DF808EDFFF7F4FF0CBF012050
:1006C00000205DF808FB00BF4DF808EDFFF7EAFFDA
:1006D00034BF012000205DF808FB00BF4DF808ED95
:1006E000FFF7E0FF94BF012000205DF808FB00BF8A
:1006F0004DF808EDFFF7D2FF94BF012000205DF810
:1007000008FB00BF4DF808EDFFF7C8FF34BF01201C
:1007100000205DF808FB00BF4FEA4002B2F1FE4F37
:100720000FD34FF09E03B3EB12620DD94FEA0023B3
:1007300043F0004310F0004F23FA02F018BF40428C
:1007400070474FF00000704712F1610F01D1420273
:1007500005D110F0004008BF6FF0004070474FF027
:100760000000704742000ED2B2F1FE4F0BD34FF0A3
:100770009E03B3EB126209D44FEA002343F0004317
:1007800023FA02F070474FF00000704712F1610F3A
:1007900001D1420202D14FF0FF3070474FF000000C
:1007A000704700BF80B400AF00BF0C4B9B6903F0E3
:1007B0000203002BF9D1094B1B68084A43F48073EC
:1007C000136000BF054B5B6903F00103002BF9D0F8
:1007D00000BF00BFBD4680BC704700BF005800404E
:1007E00080B485B000AF03460A46FB711346BB7167
:1007F000FB795A00BB791A43094B1A6100BF084BB9
:100800005B6903F00203002BF9D0054B5B69FB60C9
:10081000034B9B69FB6000BF1437BD4680BC70472B
:100820000058004080B483B000AF0346FB7100BFA6
:100830000A4B5B6903F08003002BF9D0074AFB7970
:10084000136100BF054B5B6903F00403002BF9D073
:1008500000BF00BF0C37BD4680BC70470058004049
:1008600080B400AF044B1B68034A43F40073136069
:1008700000BFBD4680BC70470058004080B400AF48
:10088000034B38225A6100BFBD4680BC704700BF91
:10089000000C014080B400AF054B1B6A044A23F4EE
:1008A000887323F00103136200BFBD4680BC70470C
:1008B000002C014080B584B000AF0346FB71464B6D
:1008C0001B88FB81454B1B6A444A23F4887323F041
:1008D00001031362FFF7DEFFFFF7D0FF3F4B00225B
:1008E0005A633E4B00229A633C4B0022DA63FB8939
:1008F000312B6CD9FB79013B052B5DD801A252F855
:1009000023F000BF6B0900089F0900088509000853
:1009100037090008510900081D0900082F4AFB8902
:1009200053632E4B1B6A2D4A43F0010313622C4B79
:1009300010221A614CE0294AFB895363274B1B6A3A
:10094000264A43F001031362254B20221A613FE03F
:10095000224AFB899363214B1B6A204A43F0100310
:1009600013621F4B20221A6132E01C4AFB899363F9
:100970001A4B1B6A194A43F010031362184B0822E2
:100980001A6125E0154AFB89D363144B1B6A134A8D
:1009900043F480731362124B08221A6118E00F4A65
:1009A000FB89D3630D4B1B6A0C4A43F480731362BB
:1009B0000B4B10221A610BE0084B1B6A074A23F409
:1009C000887323F001031362FFF758FF00E000BFB4
:1009D0001037BD4680BD00BF9A000020002C0140AA
:1009E000000C014080B400AF0C4B9B680B4A43F0F5
:1009F00001039360094B9B68084A43F480039360AA
:100A000000BF064B1B6803F00203002BF9D0034B19
:100A1000DB6C9BB21846BD4680BC70470024014089
:100A200080B400AF044B9B68DBB203F00703DBB27A
:100A30001846BD4680BC70470008014080B582B0B2
:100A400000AF7860396000F0E8FB0021002000F082
:100A500038FC7A680B490C4800F0A6FD0A4800F003
:100A60004DFC0021012000F02CFC3A6807490848A1
:100A700000F09AFD064800F041FC00BF0837BD4673
:100A800080BD00BF101F0008780000201C1F000858
:100A90008800002080B483B000AF0346FB7197F953
:100AA0000730002B0BDBFB7903F01F02064997F997
:100AB00007305B09012000FA02F241F8232000BF51
:100AC0000C37BD4680BC704700E100E080B400AF49
:100AD000304B1B682F4A43F48033136000BF2D4B0B
:100AE0001B6803F40033002BF9D02B4B1B682A4AF8
:100AF00043F010031360284B1B68274A23F00703B9
:100B00001360254B1B68244A43F004031360214BF8
:100B10005B68204A43F4803353601E4B5B681D4A78
:100B200023F4003353601B4B5B681A4A23F47013A1
:100B30005360184B5B68174A43F4E0135360154B3E
:100B4000144A5B685360134B5B68124A43F480633A
:100B50005360104B0F4A5B6853600E4B1B680D4A85
:100B600043F08073136000BF0A4B1B6803F00073EF
:100B7000002BF9D0074B5B68064A23F00303536050
:100B8000044B5B68034A43F00203536000BFBD4659
:100B900080BC7047001002400020024080B500AFCA
:100BA0004E4B9B694D4A43F0040393614B4B9B6949
:100BB0004A4A43F001039361494B1B68484A23F0BA
:100BC0000F031360464B1B68454A43F0080313604C
:100BD000434BDB68424A43F00103D360404B1B6840
:100BE0003F4A23F0F00313603D4B1B683C4A43F03F
:100BF000800313603A4BDB68394A43F00203D36049
:100C0000374B1B68364A23F470631360344B1B6800
:100C1000334A43F400631360314BDB68304A43F0DE
:100C20000403D3602F4B9B682E4A23F47F6323F089
:100C30000F0393602B4B2B4A9B689360294B294AE7
:100C40009B689360274B274A9B689360264B1B68E1
:100C5000254A43F001031360234B1B68224A43F0EB
:100C600002031360204B1B681F4A43F00403136008
:100C70001D4B9B681C4A43F0010393601A4B9B6811
:100C8000194A43F002039360174B9B68164A43F0DE
:100C900004039360144BDB68134A43F00103D360F1
:100CA000114BDB68104A43F00203D3600E4BDB6844
:100CB0000D4A43F00403D3600620FFF7EBFE072044
:100CC000FFF7E8FE0820FFF7E5FE074B5B69064AE1
:100CD00043F00703536100BF80BD00BF0010024016
:100CE00000080140000001400004014080B400AF52
:100CF000194B9B69184A43F008039361174B1B6813
:100D0000164A43F440531360144B1B68134A43F4D0
:100D100040331360114B1B68104A43F440131360B7
:100D20000E4B1B680D4A23F4404313600B4B1B68AA
:100D30000A4A23F440231360084B1B68074A23F434
:100D400040031360054B5B69044A43F03803536169
:100D500000BFBD4680BC704700100240000C01403F
:100D600080B400AF514B9B69504A43F00403936138
:100D70004E4B9B694D4A43F0010393614B4B9B697A
:100D80004A4A43F400639361494B5B68484A23F045
:100D90000F035360464B5B68454A43F003035360BF
:100DA000434B5B68424A43F008035360404B5B6827
:100DB0003F4A23F0F00353603D4B5B683C4A43F0ED
:100DC000300353603A4B5B68394A43F08003536009
:100DD000374B5B68364A23F470635360344B5B686F
:100DE000334A43F440735360314B5B68304A43F4F9
:100DF000006353602F4B00229A622E4B40F60F6225
:100E0000DA622C4B9B692B4A23F4E04323F07003F6
:100E10009361284B9B69274A43F060039361254BFC
:100E20009B69244A43F4C0439361224BDB69214A06
:100E300043F06003D3611F4B9B691E4A43F00803D4
:100E400093611C4B9B691B4A43F400639361194BEC
:100E5000DB69184A43F00803D361164B1B68154A37
:100E600043F080031360134B1B6A124A43F00103E3
:100E70001362104B1B6A0F4A43F0100313620D4BB1
:100E80001B6A0C4A43F4807313620A4B5B6C094A79
:100E900043F400435364074B1B68064A43F00103C5
:100EA000136000BFBD4680BC704700BF0010024009
:100EB00000080140002C014080B483B000AF2A4BF1
:100EC0009B69294A43F004039361274B9B69264A97
:100ED00043F400739361254B1B68244A23F4704349
:100EE0001360214B5B68204A23F4404353601E4B40
:100EF0005B681D4A43F4004353601D4B1B691C4A49
:100F000023F4606313611A4B1B69194A43F4C063ED
:100F10001361174B0022DA62154B03225A63144BFC
:100F200001229A600023FB8006E0FB881BB29BB283
:100F300001339BB21BB2FB80FB881BB2B3F57A7FF7
:100F4000F3DB0B4B9B680A4A43F00403936000BF3A
:100F5000074B9B6803F00403002BF9D100BF00BFCF
:100F60000C37BD4680BC70470010024000080140AD
:100F70000024014080B500AF0F4BDB690E4A43F0FF
:100F80000203D3610D4B41F61F429A620B4B40F2B4
:100F9000F312DA62094BDB68084A43F00103D360BD
:100FA0001D20FFF777FD054B1B68044A43F0010342
:100FB000136000BF80BD00BF00100240000400406D
:100FC00080B582B000AF78600C4B5A697B681340E3
:100FD000002B0ED0094A7B685361FFF721FD0346C1
:100FE0001A46074B1A70064B1B78DBB21846FFF700
:100FF00061FC00BF0837BD4680BD00BF0004014052
:101000009800002080B500AF104B5B6903F001032E
:10101000002B19D00D4B01225A610D4B9B6803F038
:101020000103002B04D00B4B1B680133094A1360EA
:10103000FFF7F6FC03461A46074B1A70064B1B785F
:10104000DBB21846FFF736FC00BF80BD000401404C
:1010500000080140A00000209800002080B500AFEB
:101060000220FFF7ADFF00BF80BD80B500AF0420B8
:10107000FFF7A6FF00BF80BD80B483B000AF114B67
:101080001B6903F00103002B16D00E4B1B690D4AA0
:1010900023F0010313610C4B1B687B600A4B002299
:1010A0001A607B684EF6602202FB03F3074AA2FB3C
:1010B00003239B09064A136000BF0C37BD4680BC62
:1010C000704700BF00040040A00000201F85EB51C6
:1010D0009C00002080B584B000AF0023FB6002E0DC
:1010E000FB680133FB60FB684CF24F329342F7DD43
:1010F0000021032000F076F80023BB6002E0BB680B
:101100000133BB60BB6842F20F729342F7DD0021EE
:10111000032000F067F800237B6002E07B68013366
:101120007B607B68B3F57A7FF8DB0021032000F059
:1011300059F80021022000F055F8282000F019F895
:101140000C2000F016F8062000F013F8012000F043
:1011500010F800233B6002E03B6801333B603B68D2
:1011600041F287329342F7DD00BF00BF1037BD4622
:1011700080BD80B582B000AF0346FB71FB790021D2
:10118000184600F012F800BF0837BD4680BD80B594
:1011900082B000AF0346FB71FB790121184600F0D5
:1011A00004F800BF0837BD4680BD80B582B000AFEF
:1011B00003460A46FB711346BB71FB791B09DBB280
:1011C000BA791146184600F00DF8FB7903F00F03C9
:1011D000DBB2BA791146184600F004F800BF0837B0
:1011E000BD4680BD80B584B000AF03460A46FB71A2
:1011F0001346BB71FB7903F00F03FB73BB79002B24
:1012000003D0FB7B63F07F03FB73FB7B184600F08E
:101210001AF800BF1037BD4680BD80B582B000AF60
:101220000120FFF7A6FF00237B6002E07B6801330B
:101230007B607B6841F287329342F7DD00BF00BFDD
:101240000837BD4680BD80B584B000AF0346FB7152
:10125000FFF7A8FA00212720FFF7C2FAFB7943F035
:101260003003DBB21846FFF7DDFA0023FB8104E010
:10127000FB899BB201339BB2FB81FB899BB2B3F527
:10128000FA7FF5D397F9073023F030035BB243F0D0
:1012900010035BB2DBB21846FFF7C4FA0023BB8130
:1012A00004E0BB899BB201339BB2BB81BB899BB27B
:1012B000B3F5FA7FF5D3FFF7D3FA00BF1037BD4679
:1012C00080BD80B584B000AF03460A46FB7113466B
:1012D000BB71FB79002B03D1BB79803BFB7305E02D
:1012E000FB79012B02D1BB79403BFB73FB7B18469A
:1012F000FFF73FFF00BF1037BD4680BD80B582B00D
:1013000000AF786006E07B685A1C7A601B7818464C
:10131000FFF73DFF7B681B78002BF4D100BF00BFB7
:101320000837BD4680BD000090B585B000AFFFF71F
:10133000CDFBFFF7DBFCFFF731FCFFF711FDFFF7FB
:10134000BBFDFFF717FEFFF7C5FEFFF766FFFFF7D0
:1013500049FB03463B813B8940F6B83202FB03F36D
:101360001846FEF7BFFF034653491846FFF7C2F879
:1013700003461A46514B1A60504B1C68504B1B6871
:101380001846FEF7ABFF034619462046FEF7F4FE6B
:1013900003467B604B4B1B889BB21A464A4BDB6A69
:1013A0009A4226D2474B1B889BB2002B21D0474B39
:1013B0001B6879681846FEF7E1FE03461A46434B60
:1013C0001A60424B1B6842491846FFF79BF90346D7
:1013D000002B02D03D4B3E4A1A603C4B1B683D49F6
:1013E0001846FFF771F90346002B02D0374B394AF4
:1013F0001A60394B1B6819467868FEF7BDFE034634
:101400001846FFF789F903463B60344B1B6879683F
:101410001846FEF7BBFF03461C46314B1B682B4AA0
:10142000126811461846FEF7B1FF034619462046DA
:10143000FEF7A4FE03461C463868FEF753FF02463B
:10144000284B1B6819461046FEF7A0FF03461946B5
:101450002046FEF793FE03461846FFF75DF9034664
:10146000FB60FB68002B01DA0023FB60164BDA6A95
:10147000FB689A4202D2144BDB6AFB60FB689AB2AB
:10148000104B1A80144A7B6813600D4B1C680B4B81
:101490001B681846FFF766F9034619462046FFF712
:1014A000CDFA4FF4FA737B8100BF7B895A1E7A8193
:1014B000002BFAD14BE700BF00F07F45A4000020CD
:1014C0009C0000209A000020002C0140AC0000206D
:1014D00000968C4600968CC6A800002000000020D4
:1014E000040000200800002080B586B000AF7860BE
:1014F000144A154BD31A7B617B693B61134B1B6804
:10150000002B02D1114B124A1A60104B1A687B68EB
:1015100013443A699A4207D200F068F803460C2255
:101520001A604FF0FF3309E0084B1B68FB60074B64
:101530001A687B681344054A1360FB68184618371D
:10154000BD4680BD0050002000040000B000002017
:10155000000200200D488546AFF300800C480D497D
:101560000D4A002302E0D458C4500433C4188C42FE
:10157000F9D30A4A0A4C002301E013600432A24264
:10158000FBD300F039F8FFF7CFFEFEE70050002054
:10159000000000205C000020681F00085C000020A4
:1015A000FC010020FEE700000EB46FF0004110B512
:1015B00000249DB01FAB029006900791049109484A
:1015C000094953F8042B0591006802A901931B9463
:1015D00000F08AF9029B1C701DB0BDE8104003B0FA
:1015E000704700BF0C0000200802FFFF014B186885
:1015F000704700BF0C00002070B500260C4D0D4C4C
:10160000641BA410A64209D100F076FC00260A4D06
:101610000A4C641BA410A64205D170BD55F8043BCA
:1016200098470136EEE755F8043B98470136F2E754
:10163000601F0008601F0008601F0008641F00088A
:101640007047704738B50546002940D051F8043C32
:101650000C1F002BB8BFE41800F0DEF81C4A13681A
:1016600033B9636014602846BDE8384000F0DAB84A
:10167000A34208D9206821188B4201BF19685B6812
:1016800009182160EDE71A465B680BB1A342FAD94D
:1016900011685018A0420BD12068014450188342B1
:1016A0001160E0D118685B68084410605360DAE7A5
:1016B00002D90C232B60D6E7206821188B4201BF8A
:1016C00019685B680918216063605460CBE738BD16
:1016D000F801002070B50F4E0C463168054611B96F
:1016E00000F0A8FB30602146284600F0A3FB431C15
:1016F00003D14FF0FF34204670BDC41C24F0030416
:10170000A042F8D0211A284600F094FB0130F2D113
:10171000EFE700BFF40100202DE9F843CD1C25F0D0
:10172000030508350C2D38BF0C25002D064601DBBE
:10173000A94204D90C2333600020BDE8F883DFF808
:10174000D48000F069F8D8F800301C4644BB294624
:101750003046FFF7BFFF431C044658D1D8F800407D
:101760002746002F43D1002C4BD023683946304602
:1017700004EB030900F05EFB814542D1216830464D
:101780006D1A2946FFF7A6FF01303AD023682B4493
:101790002360D8F800305A6862BBC8F800700FE0C8
:1017A0002268521B20D40B2A17D96119A342256045
:1017B00018BF5960636808BFC8F8001062514B60D9
:1017C000304600F02FF804F10B00231D20F0070035
:1017D000C21A1CBF1B1AA350AFE76268A3420CBF1A
:1017E000C8F800205A60EBE723466468AEE73C4641
:1017F0007F68B6E71A465B68A342FBD100235360BB
:10180000DEE70C233046336000F00CF894E7056007
:10181000D6E700BFF80100200148FFF711BF00BF65
:10182000F00100200148FFF70CBF00BFF0010020CD
:101830002DE9F0471F468E688246BE420C46904610
:101840000B682DD8B1F90C2012F4906F26D0656981
:10185000096905EB4505A3EB010905EBD5757B1C73
:101860004B446D109D4238BF1D46530527D5294670
:10187000FFF752FF064660B34A46216900F0F8FAC6
:10188000A38923F4906343F08003A38126614E442F
:1018900026603E466561A5EB0905A560BE4200D9FC
:1018A0003E4632464146206800F0AAFA0020A3686E
:1018B0009B1BA360236833442360BDE8F0872A465E
:1018C00000F0E4FA06460028E0D150462169FFF70F
:1018D000B9FE0C23CAF80030A3894FF0FF3043F063
:1018E0004003A381E9E700002DE9F04F98468B897A
:1018F00007461B060D4614469DB010D50B6973B9FB
:101900004021FFF709FF2860286130B90C233B60B4
:101910004FF0FF301DB0BDE8F08F40236B61002316
:10192000099320238DF8293030234FF00109CDF899
:101930000C80DFF898818DF82A3023469A4613F8F8
:10194000012B0AB1252AF9D1BAEB040B0BD05B4667
:10195000224629463846FFF76BFF013000F0A7808A
:10196000099A5A4409929AF80030002B00F09F809F
:1019700000234FF0FF32CDE905230AF1010A049359
:1019800007938DF853301A935446052214F8011B1F
:101990004E4800F05FFA049AD8B9D00644BF20231D
:1019A0008DF85330110744BF2B238DF853309AF82C
:1019B00000302A2B15D0544600204FF00A0C079A0D
:1019C000214611F8013B303B092B4BD9B0B10792AE
:1019D00014E0A0EB080309FA03F31343A2460493AF
:1019E000D2E7039B191D1B680391002BBBBF5B4211
:1019F00042F0020207930793B8BF049223782E2B7C
:101A00000AD163782A2B32D1039B02341A1D1B683A
:101A1000039243EAE3730593DFF8B4A00322504630
:101A2000217800F017FA38B14022049BA0EB0A009D
:101A3000824013430134049314F8011B0622254805
:101A40008DF8281000F006FA002836D0224B1BBB78
:101A5000039B073323F0070308330393099B3344A5
:101A600009936AE70C4601200CFB0232A8E7002329
:101A70004FF00A0C194601340593204610F8012B4B
:101A8000303A092A03D9002BC6D00591C4E7044691
:101A900001230CFB0121F0E703AB00932A463846F3
:101AA0000E4B04A9AFF30080421C0646D6D1AB8989
:101AB0005B063FF52DAF09982CE703AB00932A4650
:101AC0003846064B04A900F07DF8EDE72C1F00080E
:101AD000321F0008361F00080000000031180008FF
:101AE0002DE9F047164698468A680B6907469342E7
:101AF000B8BF1346336091F843200C46DDF82090C0
:101B00000AB1013333602368990642BF3368023358
:101B10003360256815F0060506D104F1190AE3685B
:101B200032689B1AAB422BDC94F843302268003BAE
:101B300018BF0123920630D44146384604F14302CF
:101B4000C847013023D02368226903F00603042B21
:101B500014BF002533684FF0000608BFE56804F1A4
:101B60001A0408BFED1A54F8123C08BF25EAE575BF
:101B70009342C4BF9B1AED18B5421AD1002008E069
:101B80000123524641463846C847013003D14FF041
:101B9000FF30BDE8F0870135C1E73020E11881F85A
:101BA00043005A1C94F845102244023382F8431033
:101BB000C2E70123224641463846C8470130E6D0F5
:101BC0000136D9E72DE9FF470F7E9146782F8046F1
:101BD0000C469A460C9E01F1430207D8622F0AD8A0
:101BE000002F00F0D180582F00F0B88004F1420699
:101BF00084F842703AE0A7F16303152BF6D801A1EF
:101C000051F823F05D1C0008711C0008ED1B000852
:101C1000ED1B0008ED1B0008ED1B0008711C0008FF
:101C2000ED1B0008ED1B0008ED1B0008ED1B000874
:101C30006F1D00089B1C0008291D0008ED1B0008F3
:101C4000ED1B0008911D0008ED1B00089B1C0008FF
:101C5000ED1B0008ED1B0008311D000833681A1D3C
:101C60001B68326004F1420684F8423001239CE094
:101C700033682068191D3160060601D51D6803E030
:101C80004506FBD5B3F90050002D03DA2D236D4234
:101C900084F843300A23584811E021683368080665
:101CA00053F8045B02D4490648BFADB26F2F3360CE
:101CB00014BF0A2308235048002184F843106668A3
:101CC000002EA66005DB21682E4321F0040121606F
:101CD0004BD01646B5FBF3F103FB1157C75D06F871
:101CE000017D2F46BB420D46F4D9082B0BD123684A
:101CF000DF0708D5236961689942DEBF302306F803
:101D0000013C06F1FF36921B22614B4621464046BC
:101D1000CDF800A003AAFFF7E3FE01304AD14FF04F
:101D2000FF3004B0BDE8F087236843F02003236050
:101D30007827324884F84570236831681F0651F8C7
:101D4000045B02D45F0648BFADB23160D90744BF1F
:101D500043F0200323601DB11023ADE72648E9E7D7
:101D6000236823F020032360F6E71646BDE73368B7
:101D70002568181D616930602E061B6801D5196041
:101D800002E06806FBD51980002316462361BCE7F4
:101D9000336800211A1D32601E686268304600F008
:101DA00059F808B1801B606063682361002384F8E0
:101DB0004330AAE73246494640462369D0470130BE
:101DC000ADD023689B0713D4E068039B9842B8BF4B
:101DD0001846A6E70123324649464046D04701301F
:101DE0009DD00135E36803995B1AAB42F2DCEBE767
:101DF000002504F11906F5E73D1F00084E1F0008F5
:101E0000884210B501EB020402D98442234607D868
:101E1000431EA14208D011F8012B03F8012FF8E767
:101E2000014602448A4200D110BD13F8014D02F868
:101E3000014DF7E738B50023054D044608462B60F1
:101E4000FFF752FB431C02D12B6803B1236038BD5E
:101E5000EC010020034610B5C9B202449342184673
:101E600001D1002003E0047801338C42F6D110BD8B
:101E70000A44914200F1FF3300D1704710B511F8C8
:101E8000014B914203F8014FF9D110BD2DE9F0410A
:101E9000074614460D4621B91146BDE8F041FFF74B
:101EA0003BBC2AB9FFF7CEFB25462846BDE8F081AA
:101EB00000F01AF88442064602D8B4EB500FF4D86A
:101EC00021463846FFF728FC804608B94546ECE72E
:101ED000B4422246294628BF3246FFF7C9FF2946A9
:101EE0003846FFF7AFFBF1E751F8043C181F002B11
:101EF000BCBF0B58C0187047F8B500BFF8BC08BC91
:101F00009E467047F8B500BFF8BC08BC9E467047B7
:101F100052504D3A20256C750000000054617267E4
:101F200065742052504D3A20256C7500232D302BBE
:101F30002000686C4C0065666745464700303132CA
:101F40003334353637383941424344454600303121
:101F50003233343536373839616263646566000080
:041F6000550100081F
:041F6400310100083F
:101F68000000003FCDCC4C3ECDCCCC3D1000002035
:101F780000000000B40000201C01002084010020A3
:101F88000000000000000000000000000000000049
:101F98000000000000000000000000000000000039
:101FA8000000000000000000000000000000000029
:0C1FB8000000000000000000000000001D
:040000050800155585
:00000001FF
