:020000040800F2
:1000000000500020F11000084111000841110008C3
:1000100041110008411100084111000800000000D2
:100020000000000000000000000000004111000876
:1000300041110008000000004111000841110008B2
:100040004111000841110008411100084111000848
:100050004111000841110008950E0008ED0E00083E
:10006000FB0E000841110008411100084111000871
:100070004111000841110008411100084111000818
:100080004111000841110008411100084111000808
:1000900041110008411100084111000841110008F8
:1000A00041110008411100084111000841110008E8
:1000B00041110008090F0008411100084111000812
:1000C00041110008411100084111000841110008C8
:1000D00041110008411100084111000841110008B8
:1000E0004111000841110008000000004111000802
:1000F0004111000841110008411100084111000898
:100100004111000841110008411100084111000887
:100110004111000841110008411100084111000877
:100120004111000841110008411100084111000867
:1001300010B5054C237833B9044B13B10448AFF321
:1001400000800123237010BD0C000020000000007F
:100150008C11000808B5034B1BB103490348AFF3EA
:10016000008008BD00000000100000208C11000875
:1001700080F0004002E000BF81F0004142001FBF5C
:100180005FEA410392EA030F7FEA226C7FEA236C65
:100190006AD04FEA1262D2EB1363C1BFD21841405A
:1001A00048404140B8BF5B42192B88BF704710F0F0
:1001B000004F40F4000020F07F4018BF404211F093
:1001C000004F41F4000121F07F4118BF494292EAFB
:1001D000030F3FD0A2F1010241FA03FC10EB0C0027
:1001E000C3F1200301FA03F100F0004302D54942B4
:1001F00060EB4000B0F5000F13D3B0F1807F06D361
:1002000040084FEA310102F10102FE2A51D2B1F158
:10021000004F40EBC25008BF20F0010040EA03004D
:100220007047490040EB0000013A28BFB0F5000FCD
:10023000EDD2B0FA80FCACF1080CB2EB0C0200FA83
:100240000CF0AABF00EBC25052421843BCBFD040D2
:100250001843704792F0000F81F4000106BF80F44C
:1002600000000132013BB5E74FEA41037FEA226C0F
:1002700018BF7FEA236C21D092EA030F04D092F0DA
:10028000000F08BF0846704790EA010F1CBF00200E
:10029000704712F07F4F04D1400028BF40F000406B
:1002A000704712F100723CBF00F50000704700F08B
:1002B000004343F0FE4040F4000070477FEA2262B2
:1002C00016BF08467FEA23630146420206BF5FEA83
:1002D000412390EA010F40F4800070474FF0000383
:1002E00004E000BF10F0004348BF40425FEA000C4A
:1002F00008BF704743F0964301464FF000001CE0F2
:1003000050EA010208BF70474FF000030AE000BF47
:1003100050EA010208BF704711F0004302D5404285
:1003200061EB41015FEA010C02BF844601460020F7
:1003300043F0B64308BFA3F18053A3F50003BCFA12
:100340008CF2083AA3EBC25310DB01FA02FC6344BF
:1003500000FA02FCC2F12002BCF1004F20FA02F2C6
:1003600043EB020008BF20F00100704702F12002B9
:1003700001FA02FCC2F1200250EA4C0021FA02F21A
:1003800043EB020008BF20EADC7070474FF0FF0C1F
:100390001CEAD0521EBF1CEAD15392EA0C0F93EA1A
:1003A0000C0F6FD01A4480EA010C400218BF5FEABC
:1003B00041211ED04FF0006343EA501043EA51112F
:1003C000A0FB01310CF00040B1F5000F3EBF490029
:1003D00041EAD3715B0040EA010062F17F02FD2A2D
:1003E0001DD8B3F1004F40EBC25008BF20F0010010
:1003F000704790F0000F0CF0004C08BF49024CEA27
:10040000502040EA51207F3AC2BFD2F1FF0340EAB8
:10041000C250704740F400004FF00003013A5DDC29
:1004200012F1190FDCBF00F000407047C2F100026A
:10043000410021FA02F1C2F1200200FA02FC5FEA57
:10044000310040F1000053EA4C0308BF20EADC70A1
:10045000704792F0000F00F0004C02BF400010F413
:10046000000F013AF9D040EA0C0093F0000F01F0C0
:10047000004C02BF490011F4000F013BF9D041EAE2
:100480000C018FE70CEAD15392EA0C0F18BF93EAE4
:100490000C0F0AD030F0004C18BF31F0004CD8D10E
:1004A00080EA010000F00040704790F0000F17BF95
:1004B00090F0004F084691F0000F91F0004F14D0DB
:1004C00092EA0C0F01D142020FD193EA0C0F03D133
:1004D0004B0218BF084608D180EA010000F0004036
:1004E00040F0FE4040F40000704740F0FE4040F411
:1004F000400070474FF0FF0C1CEAD0521EBF1CEAB0
:10050000D15392EA0C0F93EA0C0F69D0A2EB0302CD
:1005100080EA010C49024FEA402037D04FF0805367
:1005200043EA111143EA10130CF000408B4238BF2C
:100530005B0042F17D024FF4000C8B4224BF5B1A3A
:1005400040EA0C00B3EB510F24BFA3EB510340EA88
:100550005C00B3EB910F24BFA3EB910340EA9C0036
:10056000B3EBD10F24BFA3EBD10340EADC001B01A6
:1005700018BF5FEA1C1CE0D1FD2A3FF650AF8B424A
:1005800040EBC25008BF20F0010070470CF0004C57
:100590004CEA50207F32C2BFD2F1FF0340EAC25082
:1005A000704740F400004FF00003013A37E792F043
:1005B000000F00F0004C02BF400010F4000F013AA1
:1005C000F9D040EA0C0093F0000F01F0004C02BF9C
:1005D000490011F4000F013BF9D041EA0C0195E705
:1005E0000CEAD15392EA0C0F08D142027FF47DAF9E
:1005F00093EA0C0F7FF470AF084676E793EA0C0F8E
:1006000004D14B023FF44CAF08466EE730F0004C8B
:1006100018BF31F0004CCAD130F000427FF45CAF1B
:1006200031F000437FF43CAF5FE700BF4FF0FF3C89
:1006300006E000BF4FF0010C02E000BF4FF0010CDC
:100640004DF804CD4FEA40024FEA41037FEA226CA5
:1006500018BF7FEA236C11D001B052EA530C18BFC7
:1006600090EA010F58BFB2EB030088BFC81738BF2C
:100670006FEAE17018BF40F0010070477FEA226C1A
:1006800002D15FEA402C05D17FEA236CE4D15FEA16
:10069000412CE1D05DF8040B704700BF844608464A
:1006A0006146FFE70FB5FFF7C9FF002848BF10F10B
:1006B000000F0FBD4DF808EDFFF7F4FF0CBF012050
:1006C00000205DF808FB00BF4DF808EDFFF7EAFFDA
:1006D00034BF012000205DF808FB00BF4DF808ED95
:1006E000FFF7E0FF94BF012000205DF808FB00BF8A
:1006F0004DF808EDFFF7D2FF94BF012000205DF810
:1007000008FB00BF4DF808EDFFF7C8FF34BF01201C
:1007100000205DF808FB00BF4FEA4002B2F1FE4F37
:100720000FD34FF09E03B3EB12620DD94FEA0023B3
:1007300043F0004310F0004F23FA02F018BF40428C
:1007400070474FF00000704712F1610F01D1420273
:1007500005D110F0004008BF6FF0004070474FF027
:100760000000704780B400AF034B38225A6100BFCD
:10077000BD4680BC704700BF000C014080B400AF94
:10078000054B1B6A044A23F4887323F001031362A8
:1007900000BFBD4680BC7047002C014080B584B0CE
:1007A00000AF0346FB71464B1B88FB81454B1B6A20
:1007B000444A23F4887323F001031362FFF7DEFF3A
:1007C000FFF7D0FF3F4B00225A633E4B00229A6353
:1007D0003C4B0022DA63FB89312B6CD9FB79013B5E
:1007E000052B5DD801A252F823F000BF5308000882
:1007F000870800086D0800081F080008390800086D
:10080000050800082F4AFB8953632E4B1B6A2D4AAB
:1008100043F0010313622C4B10221A614CE0294A69
:10082000FB895363274B1B6A264A43F0010313627B
:10083000254B20221A613FE0224AFB899363214B1A
:100840001B6A204A43F0100313621F4B20221A61D7
:1008500032E01C4AFB8993631A4B1B6A194A43F026
:1008600010031362184B08221A6125E0154AFB8910
:10087000D363144B1B6A134A43F480731362124B05
:1008800008221A6118E00F4AFB89D3630D4B1B6ADB
:100890000C4A43F4807313620B4B10221A610BE075
:1008A000084B1B6A074A23F4887323F00103136281
:1008B000FFF758FF00E000BF1037BD4680BD00BF06
:1008C0002A000020002C0140000C014080B400AF41
:1008D0000C4B9B680B4A43F001039360094B9B68E8
:1008E000084A43F48003936000BF064B1B6803F083
:1008F0000203002BF9D0034BDB6C9BB21846BD46BC
:1009000080BC70470024014080B400AF044B9B685A
:10091000DBB203F00703DBB21846BD4680BC70476C
:100920000008014080B483B000AF0346FB7197F923
:100930000730002B0BDBFB7903F01F02064997F908
:1009400007305B09012000FA02F241F8232000BFC2
:100950000C37BD4680BC704700E100E080B400AFBA
:10096000304B1B682F4A43F48033136000BF2D4B7C
:100970001B6803F40033002BF9D02B4B1B682A4A69
:1009800043F010031360284B1B68274A23F007032A
:100990001360254B1B68244A43F004031360214B6A
:1009A0005B68204A43F4803353601E4B5B681D4AEA
:1009B00023F4003353601B4B5B681A4A23F4701313
:1009C0005360184B5B68174A43F4E0135360154BB0
:1009D000144A5B685360134B5B68124A43F48063AC
:1009E0005360104B0F4A5B6853600E4B1B680D4AF7
:1009F00043F08073136000BF0A4B1B6803F0007361
:100A0000002BF9D0074B5B68064A23F003035360C1
:100A1000044B5B68034A43F00203536000BFBD46CA
:100A200080BC7047001002400020024080B500AF3B
:100A30004E4B9B694D4A43F0040393614B4B9B69BA
:100A40004A4A43F001039361494B1B68484A23F02B
:100A50000F031360464B1B68454A43F008031360BD
:100A6000434BDB68424A43F00103D360404B1B68B1
:100A70003F4A23F0F00313603D4B1B683C4A43F0B0
:100A8000800313603A4BDB68394A43F00203D360BA
:100A9000374B1B68364A23F470631360344B1B6872
:100AA000334A43F400631360314BDB68304A43F050
:100AB0000403D3602F4B9B682E4A23F47F6323F0FB
:100AC0000F0393602B4B2B4A9B689360294B294A59
:100AD0009B689360274B274A9B689360264B1B6853
:100AE000254A43F001031360234B1B68224A43F05D
:100AF00002031360204B1B681F4A43F0040313607A
:100B00001D4B9B681C4A43F0010393601A4B9B6882
:100B1000194A43F002039360174B9B68164A43F04F
:100B200004039360144BDB68134A43F00103D36062
:100B3000114BDB68104A43F00203D3600E4BDB68B5
:100B40000D4A43F00403D3600620FFF7EBFE0720B5
:100B5000FFF7E8FE0820FFF7E5FE074B5B69064A52
:100B600043F00703536100BF80BD00BF0010024087
:100B700000080140000001400004014080B400AFC3
:100B8000194B9B69184A43F008039361174B1B6884
:100B9000164A43F440531360144B1B68134A43F442
:100BA00040331360114B1B68104A43F44013136029
:100BB0000E4B1B680D4A23F4404313600B4B1B681C
:100BC0000A4A23F440231360084B1B68074A23F4A6
:100BD00040031360054B5B69044A43F038035361DB
:100BE00000BFBD4680BC704700100240000C0140B1
:100BF00080B400AF514B9B69504A43F004039361AA
:100C00004E4B9B694D4A43F0010393614B4B9B69EB
:100C10004A4A43F400639361494B5B68484A23F0B6
:100C20000F035360464B5B68454A43F00303536030
:100C3000434B5B68424A43F008035360404B5B6898
:100C40003F4A23F0F00353603D4B5B683C4A43F05E
:100C5000300353603A4B5B68394A43F0800353607A
:100C6000374B5B68364A23F470635360344B5B68E0
:100C7000334A43F440735360314B5B68304A43F46A
:100C8000006353602F4B00229A622E4B40F60F6296
:100C9000DA622C4B9B692B4A23F4E04323F0700368
:100CA0009361284B9B69274A43F060039361254B6E
:100CB0009B69244A43F4C0439361224BDB69214A78
:100CC00043F06003D3611F4B9B691E4A43F0080346
:100CD00093611C4B9B691B4A43F400639361194B5E
:100CE000DB69184A43F00803D361164B1B68154AA9
:100CF00043F080031360134B1B6A124A43F0010355
:100D00001362104B1B6A0F4A43F0100313620D4B22
:100D10001B6A0C4A43F4807313620A4B5B6C094AEA
:100D200043F400435364074B1B68064A43F0010336
:100D3000136000BFBD4680BC704700BF001002407A
:100D400000080140002C014080B483B000AF2A4B62
:100D50009B69294A43F004039361274B9B69264A08
:100D600043F400739361254B1B68244A23F47043BA
:100D70001360214B5B68204A23F4404353601E4BB1
:100D80005B681D4A43F4004353601D4B1B691C4ABA
:100D900023F4606313611A4B1B69194A43F4C0635F
:100DA0001361174B0022DA62154B03225A63144B6E
:100DB00001229A600023FB8006E0FB881BB29BB2F5
:100DC00001339BB21BB2FB80FB881BB2B3F57A7F69
:100DD000F3DB0B4B9B680A4A43F00403936000BFAC
:100DE000074B9B6803F00403002BF9D100BF00BF41
:100DF0000C37BD4680BC704700100240000801401F
:100E00000024014080B500AF0F4BDB690E4A43F070
:100E10000203D3610D4B41F61F429A620B4B40F225
:100E2000F312DA62094BDB68084A43F00103D3602E
:100E30001D20FFF777FD054B1B68044A43F00103B3
:100E4000136000BF80BD00BF0010024000040040DE
:100E500080B582B000AF78600C4B5A697B68134054
:100E6000002B0ED0094A7B685361FFF74DFD034606
:100E70001A46074B1A70064B1B78DBB21846FFF771
:100E80008DFC00BF0837BD4680BD00BF0004014097
:100E90002800002080B500AF104B5B6903F0010310
:100EA000002B19D00D4B01225A610D4B9B6803F0AA
:100EB0000103002B04D00B4B1B680133094A13605C
:100EC000FFF722FD03461A46074B1A70064B1B78A4
:100ED000DBB21846FFF762FC00BF80BD0004014092
:100EE00000080140300000202800002080B500AF3D
:100EF0000220FFF7ADFF00BF80BD80B500AF04202A
:100F0000FFF7A6FF00BF80BD80B483B000AF114BD8
:100F10001B6903F00103002B16D00E4B1B690D4A11
:100F200023F0010313610C4B1B687B600A4B00220A
:100F30001A607B684EF6602202FB03F3074AA2FBAD
:100F400003239B09064A136000BF0C37BD4680BCD3
:100F5000704700BF00040040300000201F85EB51A7
:100F60002C00002090B585B000AFFFF7F7FCFFF72D
:100F700005FEFFF75BFDFFF73BFEFFF7E5FEFFF722
:100F800041FFFFF7A3FC03467B817B8940F6B83223
:100F900002FB03F31846FFF7A5F903464849184634
:100FA000FFF7A8FA03461A46464B1A60454B1C68E1
:100FB000454B1B681846FFF791F903461946204632
:100FC000FFF7DAF803467B60404B1B889BB21A465A
:100FD0003F4BDB6A9A4226D23C4B1B889BB2002BCC
:100FE00021D03C4B1B6879681846FFF7C7F80346C9
:100FF0001A46384B1A60374B1B6837491846FFF7BB
:1010000081FB0346002B02D0324B334A1A60314B2E
:101010001B6832491846FFF757FB0346002B02D0E6
:101020002C4B2E4A1A602E4B1B6819467868FFF726
:10103000A3F803461846FFF76FFB03463B60294BB6
:101040001B6879681846FFF7A1F903461C46264B32
:101050001B68204A126811461846FFF797F90346A5
:1010600019462046FFF78AF803461C463868FFF702
:1010700039F902461D4B1B6819461046FFF786F9E1
:10108000034619462046FFF779F803461846FFF74E
:1010900043FB0346FB60FB68002B01DA0023FB6087
:1010A0000B4BDA6AFB689A4202D2094BDB6AFB609F
:1010B000FB689AB2054B1A80094A7B68136060E7A7
:1010C00000F07F45340000202C0000202A00002082
:1010D000002C01403C00002000968C4600968CC6F7
:1010E000380000200000002004000020080000203C
:1010F0000D488546AFF300800C480D490D4A00238A
:1011000002E0D458C4500433C4188C42F9D30A4ABC
:101110000A4C002301E013600432A242FBD300F02A
:1011200011F8FFF71FFFFEE700500020000000202D
:101130000C000020AC1100080C0000204000002032
:10114000FEE7000070B500260C4D0D4C641BA4108A
:10115000A64209D100F01AF800260A4D0A4C641B79
:10116000A410A64205D170BD55F8043B984701363E
:10117000EEE755F8043B98470136F2E7A411000862
:10118000A4110008A4110008A8110008F8B500BFB8
:10119000F8BC08BC9E467047F8B500BFF8BC08BC58
:0411A0009E467047B0
:0411A40055010008E9
:0411A8003101000809
:0C11AC000000003FCDCC4C3ECDCCCC3D33
:04000005080010F1EE
:00000001FF
